:100000000C94D4110C9405120C9405120C94051246
:100010000C9405120C9405120C9405120C94051204
:100020000C9405120C9405120C9405120C940512F4
:100030000C9405120C9405120C9405120C940512E4
:100040000C9405120C940D410C9405120C9405129D
:100050000C9405120C9405120C94433F0C94DC3460
:100060000C9405120C94A0320C9405120C940512F9
:100070000C9405120C9405120C9405120C940512A4
:100080000C9405120C9405120C9405120C94051294
:100090000C9405120C9405120C9405120C94051284
:1000A0000C9405120C9405120C9405120C94051274
:1000B0000C9405120C9405120C9405120C94051264
:1000C0000C9405120C9405120C9405120C94051254
:1000D0000C9405120C9405120C9405120C94051244
:1000E0000C940512E932EC32DB32DF32E532233395
:1000F000F032F432FA32FE32023308330C3310336A
:10010000233316331A331E33F833FD3302340C34E1
:1001100016348F342034283430343A3444344E3456
:100120005D3467348F3471347B348534C9B6C9B6D5
:10013000D4B6D4B6D4B6DFB6DFB6DFB6F4B6EAB618
:10014000EAB6EAB6A13FB03FCF3FDE3FF93FFD3F01
:100150000040044007400B400E4012401C40084A3B
:10016000D73B3BCE016E84BCBFFDC12F3D6C7431CB
:100170009ABD56833DDA3D00C77F11BED9E4BB4C22
:100180003E916BAAAABE000000803F05A84CCDB2EC
:10019000D44EB93836A9020C50B9918688083CA6CD
:1001A000AAAA2ABE000000803F00434F4D4D554E85
:1001B00049434154494F4E0044525952554E00450F
:1001C00052524F525300494E464F004543484F004C
:1001D0005A206E6F7420656E74657265642E0A0015
:1001E0005A206E6F7420656E74657265642E0A0005
:1001F00059206F7574206F662072616E67652028C4
:10020000312D32292E0A0059206E6F7420656E74CC
:10021000657265642E0A0058206F7574206F662021
:1002200072616E67652028312D32292E0A00582010
:100230006E6F7420656E74657265642E0A004732B5
:1002400038004D6573682070726F62696E67206454
:100250006F6E652E005374617274206D6573682033
:1002600070726F62696E6720776974682022473206
:1002700039205331222066697273742E0047323858
:100280000A473239205332002020000A4D6561733D
:100290007572656420706F696E74733A000A5A2033
:1002A0006F66667365743A20000A5A20736561723E
:1002B0006368206865696768743A20004E756D2030
:1002C000582C593A20004D65736820626564206C93
:1002D0006576656C696E67206E6F74206163746902
:1002E00076652E0053206F7574206F662072616EE4
:1002F00067652028302D34292E00526573756D698D
:100300006E67207072696E740041525941205052DC
:100310004F2072656164792E005761697420666FA1
:100320007220757365722E2E2E0054455354004E64
:100330006F206D6F76652E00456E642066696C6572
:10034000206C69737400426567696E2066696C652C
:10035000206C697374005344207072696E74696E06
:1003600067206279746520004E6F742053442070BA
:1003700072696E74696E670046696C652064656CAD
:10038000657465643A0044656C6574696F6E2066D7
:1003900061696C65642C2046696C653A20006F7059
:1003A000656E206661696C65642C2046696C653AEF
:1003B00020002569206D696E2C20256920736563F6
:1003C000004920616D2068656174696E6700415263
:1003D00059412050524F2072656164792E00CB0143
:1003E000C601BF01B801AA016F66660044454255C7
:1003F000473A004B494C4C45442E20004D31313397
:100400002053006F6B004920616D20616C6C206887
:1004100065617465642075702E003F0020573A00B6
:100420004920616D2068656174696E6700415259A9
:10043000412050524F2072656164792E00426564FC
:1004400020646F6E652E003F0020573A00426564BD
:100450002048656174696E672E00415259412050F1
:10046000524F2072656164792E00415259412050EB
:10047000524F204F66662E004649524D5741524515
:100480005F4E414D453A4144414D20566572736976
:100490006F6E203220284144414D2920534F555240
:1004A00043455F434F44455F55524C3A4144414DAB
:1004B0002050524F544F434F4C5F56455253494F73
:1004C0004E3A312E30204D414348494E455F5459F4
:1004D00050453A415259412050524F2045585452AC
:1004E000554445525F434F554E543A312055554976
:1004F000443A3030312D363238322D303130310AF5
:10050000007A5F6D696E3A2000795F6D696E3A20FE
:1005100000785F6D696E3A20004D31343520533CD0
:10052000696E6465783E206F7574206F6620726115
:100530006E67652028302D31290053657474696E0B
:10054000672054726176656C20416363656C6572E7
:100550006174696F6E3A200053657474696E672028
:100560005265747261637420416363656C65726186
:1005700074696F6E3A200053657474696E67205019
:1005800072696E7420416363656C65726174696F32
:100590006E3A200053657474696E67205072696EFC
:1005A0007420616E642054726176656C20416363CF
:1005B000656C65726174696F6E3A2000220A00559D
:1005C0006E6B6E6F776E20636F6D6D616E643A2037
:1005D00022004E6F204C696E65204E756D6265720B
:1005E000207769746820636865636B73756D2C2070
:1005F0004C617374204C696E653A20004B494C4C39
:1006000045442E200053544F505045442E20005056
:1006100072696E7465722073746F707065642064A3
:10062000756520746F206572726F72732E20466933
:100630007820746865206572726F7220616E642024
:10064000757365204D39393920746F207265737464
:100650006172742E202854656D70657261747572B4
:10066000652069732072657365742E20536574204C
:100670006974206166746572207265737461727446
:10068000696E6729004E6F20436865636B73756DF3
:100690002077697468206C696E65206E756D62657F
:1006A000722C204C617374204C696E653A20006393
:1006B0006865636B73756D206D69736D61746368D4
:1006C0002C204C617374204C696E653A20004C6993
:1006D0006E65204E756D626572206973206E6F7451
:1006E000204C617374204C696E65204E756D626597
:1006F000722B312C204C617374204C696E653A204A
:10070000004D313130004D383420582059205A20C6
:100710004500256920686F757273202569206D6911
:100720006E7574657300446F6E65207072696E74C7
:10073000696E672066696C650020496E76616C6938
:1007400064206578747275646572200000005C43F3
:1007500000005C430000484300000000000000006F
:100760000000000020746F6F206C6F6E672065784A
:1007700074727573696F6E2070726576656E7465DC
:10078000640020636F6C6420657874727573696FA0
:100790006E2070726576656E74656400536C656575
:1007A000702E2E2E0043616E6E6F74206F70656E1A
:1007B000207375626469720020403A002042403A1A
:1007C00000202F0020423A00202F0020543A002021
:1007D0005A3A0020593A0020436F756E7420583AF7
:1007E000200020453A00205A3A0020593A00583A51
:1007F00000436172642072656D6F766564004361C9
:10080000726420696E736572746564000000210073
:10081000240027002A002D003000330001010000D1
:10082000040107010A0100002200250028002B0016
:100830002E003100340002010000050108010B0107
:10084000000020002300260029002C002F00320089
:100850000001000003010601090105050505070562
:1008600008080808020202020A0A0808040404042C
:100870000101010101010101030303030303030358
:10088000040707070C0C0C0C0C0C0C0C02020202E7
:1008900006060606060606060B0B0B0B0B0B0B0BD0
:1008A0000102102020080810204010204080020182
:1008B0000201080402010102040810204080804067
:1008C0002010080402018004020180402010080466
:1008D0000201080402010102040810204080010204
:1008E00004081020408000000A0B02090C0D0E08BD
:1008F00007030401000000000000000000000000E9
:1009000000000000000000000000000000000000E7
:1009100000001211100000000000000000000000A4
:100920000000000000000000000000004B494C4C9B
:1009300045442E2000202D20496E76616C6964208C
:100940006578747275646572206E756D626572206B
:1009500021002020506C616E6E657242756666657E
:100960007242797465733A20002046726565204DA5
:10097000656D6F72793A20004A616E20203820320E
:1009800030313800436F6D70696C65643A2000281F
:100990004144414D2900207C20417574686F723AB2
:1009A0002000323031372D31312D30382031323A7C
:1009B000303000204C61737420557064617465643C
:1009C0003A20002056657273696F6E2032004341F1
:1009D00044580020536F66747761726520526573C6
:1009E000657400205761746368646F672052657393
:1009F0006574002042726F776E206F7574205265A7
:100A0000736574002045787465726E616C20526560
:100A100073657400506F77657255700073746172FE
:100A200074006572726F722077726974696E6720E4
:100A3000746F2066696C6500456E6473746F7073C3
:100A400020256320256320256320256300205A3A52
:100A50000020593A0020583A00656E6473746F7034
:100A600073206869743A2000446F6E652073617664
:100A7000696E672066696C652E004D32390023640B
:100A80006566696E65202044454641554C545F4B70
:100A900064200023646566696E65202044454641F4
:100AA000554C545F4B69200023646566696E652070
:100AB0002044454641554C545F4B702000504944FA
:100AC000204175746F74756E652066696E69736810
:100AD0006564212050757420746865206C6173749E
:100AE000204B702C204B6920616E64204B64206386
:100AF0006F6E7374616E74732066726F6D206265C1
:100B00006C6F7720696E746F20436F6E66696775CE
:100B1000726174696F6E2E6800504944204175748B
:100B20006F74756E65206661696C656421207469F7
:100B30006D656F757400504944204175746F74750C
:100B40006E65206661696C6564212054656D706511
:100B500072617475726520746F6F206869676800D0
:100B6000204B643A2000204B693A2000204B703A19
:100B7000200020436C617373696320504944200056
:100B80002054753A2000204B753A2000206D617882
:100B90003A2000206D696E3A200020643A2000203F
:100BA000626961733A20004D657368205859206965
:100BB0006E646578206973206F7574206F6620629B
:100BC0006F756E6473004D343231207265717569D2
:100BD0007265732058595A20706172616D65746531
:100BE0007273004F666673657473206170706C6910
:100BF0006564004572723A20546F6F2066617221FD
:100C000000546F6F206661722066726F6D2072658E
:100C1000666572656E636520706F696E7400436807
:100C2000616E67652066696C616D656E74004D3636
:100C3000303020486F74656E6420746F6F20636F6E
:100C40006C6420746F206368616E67652066696CF0
:100C5000616D656E740024F4D43050C38E20C2A23E
:100C60004017828B7011127A910D816CD90AA8619C
:100C7000E108C7586607615143061E4B5D05C14533
:100C8000A7041A411104093D980371393103403614
:100C9000DB0265339102D4305402802E1D02632C96
:100CA000EE01752AC501B028A001102781018F250A
:100CB00064012B244B01E0223401AC211F018D2063
:100CC0000D01801FFC00841EED00971DDF00B81C85
:100CD000D200E61BC600201BBC00641AB200B21989
:100CE000A8000A19A0006A189900D11791004017AE
:100CF0008B00B516840031167E00B31579003A15C5
:100D00007300C7146F0058146A00EE13660088134E
:100D1000630025135E00C7125B006C1257001512AA
:100D20005400C111510070114F0021114B00D61019
:100D300049008D1047004610440002104200C00FC9
:100D40004000800F3E00420F3C00060F3B00CB0EE0
:100D50003800930E37005C0E3500270E3400F30D7B
:100D60003200C10D3100900D3000600D2E00320DAB
:100D70002D00050D2C00D90C2B00AE0C2900850C84
:100D800029005C0C2700350C27000E0C2600E80B10
:100D90002400C40B2400A00B23007D0B23005A0B5E
:100DA0002100390B2100180B2000F80A1F00D90A76
:100DB0001E00BB0A1E009D0A1D00800A1D00630A5A
:100DC0001C00470A1B002C0A1B00110A1A00F70915
:100DD0001A00DD091900C4091900AB0919009209AC
:100DE00017007B091800630917004C091600360923
:100DF0001600200916000A091500F5081500E0087C
:100E00001400CC081400B8081400A40814009008BA
:100E100013007D0812006B081300580812004608E2
:100E200012003408110023081100120811000108F3
:100E30001100F0071000E0071000D0071000C007F5
:100E40001000B0070F00A107100091070E008307E4
:100E50000F0074070F0065070E0057070E004907C3
:100E60000E003B070D002E070E0020070D00130794
:100E70000D0006070D00F9060C00ED060D00E0065A
:100E80000C00D4060C00C8060C00BC060C00B00612
:100E90000C00A4060B0099060C008D060B008206C0
:100EA0000B0077060B006C060B0061060A00570664
:100EB0000B004C060A0042060A0038060A002E06FD
:100EC0000A0024060A001A060A001006090007068E
:100ED0000A00FD050900F4050900EB050900E2051B
:100EE0000900D9050900D0050900C7050900BE059C
:100EF0000900B5050800AD050800A50509009C0519
:100F00000800940508008C050800840508007C058D
:100F10000800740508006C050700650508005D05FC
:100F20000700560508004E05070047050700400565
:100F3000080038050700310507002A0507002305CA
:100F400007001C050600160507000F050700080529
:100F5000060002050700FB040600F5040700EE0486
:100F60000600E8040600E2040700DB040600D504DE
:100F70000600CF040600C9040600C3040600BD0431
:100F80000600B7040600B1040500AC040600A60480
:100F90000600A00405009B040600950405009004CB
:100FA00006008A04050085040500800406007A0412
:100FB000050075040500700405006B040500660457
:100FC0000500610405005C04050057040500520497
:100FD00005004D04050048040500430405003E04D7
:100FE00004003A04050035040500300404002C0414
:100FF000050027040400230405001E0404001A044D
:10100000040016040500110404000D040400090482
:1010100005000404040000040400FC030400F803B9
:101020000400F4030400F0030400EC030400E803EC
:101030000400E4030400E0030400DC030400D8031C
:101040000400D4030400D0030400CC030400C8034C
:101050000300C503030024F404D9201BC40C5C0E58
:101060009804C4095F0265077101F405F900FB04E7
:10107000B30048048700C103690058035500030307
:101080004500BE023A008402310053022A002902C0
:10109000250004022000E4011C00C8011900AF0172
:1010A0001700980114008401130071011000610100
:1010B000100051010E0043010D0036010B002B0101
:1010C0000B0020010B00150109000C0109000301B0
:1010D0000800FB000800F3000800EB000700E40034
:1010E0000600DE000600D8000600D2000600CC0094
:1010F0000500C7000500C2000500BD000400B900DE
:101100000400B5000400B1000400AD000400A90013
:101110000400A5000300A20003009F0004009B0040
:101120000300980003009500020093000300900064
:1011300003008D0002008B0003008800020086007F
:10114000020084000300810002007F0002007D0095
:1011500002007B00020079000200770001007600A7
:1011600002007400020072000100710002006F00B2
:1011700002006D0001006C0002006A0001006900BD
:1011800002006700010066000100650001006400C4
:1011900002006200010061000100600001005F00C8
:1011A00002005D0001005C0001005B0001005A00CC
:1011B00001005900010058000100570001005600CD
:1011C00001005500010054000100530000005300CD
:1011D00001005200010051000100500001004F00C9
:1011E00001004E0000004E0001004D0001004C00C7
:1011F00001004B0000004B0001004A0001004900C3
:1012000001004800000048000100470001004600BE
:1012100000004600010045000000450001004400B8
:1012200001004300000043000100420000004200B2
:1012300001004100000041000100400001003F00AA
:1012400000003F0001003E0000003E0001003D00A4
:1012500000003D0001003C0000003C0000003C009C
:1012600001003B0000003B0001003A0000003A0092
:10127000010039000000390001003800000038008A
:101280000000380001003700000037000100360080
:101290000000360000003600010035000000350077
:1012A000000035000100340000003400000034006C
:1012B0000100330000003300000033000100320061
:1012C0000000320000003200010031000000310057
:1012D000000031000100300000003000000030004C
:1012E00001002F0000002F0000002F0000002F0041
:1012F00001002E0000002E0000002E0001002D0035
:1013000000002D0000002D0000002D0001002C0029
:1013100000002C0000002C0000002C0001002B001D
:1013200000002B0000002B0000002B0001002A0011
:1013300000002A0000002A0000002A000100290005
:1013400000002900000029000000290000002900F9
:1013500001002800000028000000280000002800EC
:1013600000002800010027000000270000002700DF
:1013700000002700000027000100260000002600D2
:1013800000002600000026000000260001002500C5
:1013900000002500000025000000250000002500B9
:1013A00000002500010024000000240000002400AB
:1013B000000024000000240001002300000023009E
:1013C0000000230000002300000023000000230091
:1013D0000000230001002200000022000000220083
:1013E0000000220000002200000022000100210075
:1013F0000000210000002100000021000000210069
:101400000000210000002100010020000000200059
:10141000000020000000200000002000000020004C
:10142000000020000000200001001F0000001F003D
:1014300000001F0000001F0000001F0000001F0030
:1014400000001F0001001E0000001E0000001E0022
:1014500000001E0000004D383420582059205A202A
:101460004500626564002C2073797374656D207388
:10147000746F7070656421204865617465725F499E
:10148000443A20004572723A204D415854454D501F
:10149000004D415854454D5020747269676765721C
:1014A0006564004572723A204D494E54454D5000D6
:1014B0004D494E54454D5020747269676765726599
:1014C00064004572723A204D494E54454D502042B9
:1014D0004544004D494E54454D502074726967672C
:1014E00065726564004572723A204D415854454D0D
:1014F0005020424544004D415854454D502074728F
:1015000069676765726564004573746570732F6DF4
:101510006D004573746570732F6D6D005A7374653B
:1015200070732F6D6D005A73746570732F6D6D003D
:101530005973746570732F6D6D0059737465707392
:101540002F6D6D005873746570732F6D6D00587337
:10155000746570732F6D6D00412D74726176656CCA
:1015600000412D74726176656C00412D7265747254
:1015700061637400412D7265747261637400416D22
:101580006178204500416D6178204500416D6178AA
:10159000205A00416D6178205A00416D61782059D0
:1015A00000416D6178205900416D617820580041FB
:1015B0006D61782058005654726176206D696E0016
:1015C0005654726176206D696E00566D696E0056D4
:1015D0006D696E00566D6178204500566D6178200A
:1015E0004500566D6178205A00566D6178205A008A
:1015F000566D6178205900566D6178205900566DFE
:101600006178205800566D617820580056652D6A23
:1016100065726B0056652D6A65726B00567A2D6A8D
:1016200065726B00567A2D6A65726B005678792D5B
:101630006A65726B005678792D6A65726B0041633A
:1016400063656C00416363656C00426564205A0009
:10165000426564205A00436F6E74726F6C00466975
:101660006C2E204469612E0046696C2E204469610D
:101670002E004F6666004F6E20004520696E206D7B
:101680006D3300436F6E74726F6C0043616E6E6FEA
:101690007420656E746572207375626469723A2095
:1016A00000052E2E004D61696E001000C902100168
:1016B0002C014001220170011801B0010E01F0015E
:1016C00004015002FA00B002F0003003E600D0033B
:1016D000DC009004D2007005C800A006BE0000081F
:1016E000B400B009AA00D00BA000600E96006011F3
:1016F0008C000015820020197800C01D6E00A02209
:101700006400B0275A00902C500000314600E034AD
:101710003C0010383200903A2800603C1E00A03D8A
:101720001400803E0A00203F00002D2D2D2D007C4E
:10173000434144587C002D2D2D2D0044657369676D
:101740006E656420616E6420446576656C6F7065BB
:10175000642062792043414458002041525941207D
:1017600050524F002D2D3A2D2D002D2D2D0053447C
:10177000005A005900200020003F005800012000BE
:101780000120004731205A323520463135303000B3
:101790004E6F2053442063617264005072696E740E
:1017A0002066726F6D2053440053746F7020707206
:1017B000696E7400526573756D65207072696E7420
:1017C000005061757365207072696E7400436F6EAE
:1017D00074726F6C00507265706172650054756E42
:1017E0006500496E666F2073637265656E005344D1
:1017F0002063617264206F6B006F70656E526F6F53
:1018000074206661696C656400766F6C756D652E19
:10181000696E6974206661696C6564004572726FF7
:10182000723A00534420696E6974206661696C00E5
:101830002200656E7175657565696E6720220065A9
:1018400063686F3A002062797465732900207374AD
:101850006F7265642073657474696E677320726556
:101860007472696576656420280048617264636FEC
:101870006465642044656661756C74205365747496
:10188000696E6773204C6F616465640020204D327F
:1018900030302044300020204D32303020440020B1
:1018A00044697361626C65640046696C616D656E64
:1018B000742073657474696E67733A00204C00205D
:1018C000430020440020490020204D333031205077
:1018D000005049442073657474696E67733A002040
:1018E000460020420020204D31343520533120481D
:1018F0000020460020420020204D31343520533056
:101900002048004D6174657269616C20686561747E
:10191000757020706172616D65746572733A002034
:101920005A0020590020204D3432312058002059CF
:101930000020580020204D3432302053004D657374
:101940006820626564206C6576656C696E673A0034
:10195000205A0020590020204D32303620580048AF
:101960006F6D65206F666673657420286D6D293A0A
:1019700000204500205A002058002042002054003A
:1019800020204D323035205300416476616E63650E
:1019900064207661726961626C65733A20533D4DD3
:1019A000696E20666565647261746520286D6D2FAF
:1019B00073292C20543D4D696E2074726176656CDC
:1019C00020666565647261746520286D6D2F7329CA
:1019D0002C20423D6D696E696D756D207365676D74
:1019E000656E742074696D6520286D73292C2058EC
:1019F0003D6D6178696D756D205859206A65726B0F
:101A000020286D6D2F73292C20205A3D6D61786937
:101A10006D756D205A206A65726B20286D6D2F736D
:101A2000292C2020453D6D6178696D756D2045201C
:101A30006A65726B20286D6D2F7329002054002079
:101A4000520020204D323034205000416363656CD9
:101A500065726174696F6E733A20503D7072696E81
:101A600074696E672C20523D7265747261637420D4
:101A7000616E6420543D74726176656C002045008F
:101A8000205A0020590020204D3230312058004D7E
:101A90006178696D756D20416363656C6572617411
:101AA000696F6E20286D6D2F7332293A0020450032
:101AB000205A0020590020204D3230332058004D4C
:101AC0006178696D756D20666565647261746573B2
:101AD00020286D6D2F73293A00204500205A0020E0
:101AE000590020204D3932205800537465707320FE
:101AF00070657220756E69743A006175746F25693E
:101B00002E67004D3234004D32332025730057725A
:101B10006974696E6720746F2066696C653A20008D
:101B20002E0A006F70656E206661696C65642C20FA
:101B300046696C653A20002E0A0046696C65207380
:101B4000656C6563746564002053697A653A2000AA
:101B500046696C65206F70656E65643A20006F7031
:101B6000656E206661696C65642C2046696C653A17
:101B700020006F70656E206661696C65642C20467C
:101B8000696C653A20004E6F772066726573682035
:101B900066696C653A20004E6F7720646F696E67E6
:101BA0002066696C653A20002220706F7300222045
:101BB000706172656E743A2200535542524F55540B
:101BC000494E452043414C4C207461726765743A1C
:101BD00022004B494C4C45442E2000747279696EAA
:101BE0006720746F2063616C6C207375622D67636E
:101BF0006F64652066696C6573207769746820740A
:101C00006F6F206D616E79206C6576656C732E2028
:101C10004D4158206C6576656C2069733A005265B9
:101C200073746F7265206661696C73616665004CE0
:101C30006F6164206D656D6F72790053746F7265AA
:101C4000206D656D6F72790046696C616D656E74AB
:101C5000004D6F74696F6E0054656D7065726174CC
:101C6000757265004D61696E004D3330332055311A
:101C700020452569205325690050726568656174A7
:101C80002041425320636F6E660050726568656143
:101C90007420504C4120636F6E66005049442041CF
:101CA00075746F74756E6500504944204175746F8A
:101CB00074756E65005049442D43005049442D43CE
:101CC000005049442D44005049442D44005049449B
:101CD0002D49005049442D49005049442D50005091
:101CE00049442D50002002204661637400200220E8
:101CF00046616374002002204D6178002002204D6F
:101D00006178002002204D696E002002204D696E2E
:101D1000004F6666004F6E20004175746F74656DEC
:101D2000700046616E2073706565640046616E20C8
:101D300073706565640042656400426564004E6FBF
:101D40007A7A6C65004E6F7A7A6C6500436F6E74B8
:101D5000726F6C0053746F7265206D656D6F727970
:101D60000042656400426564004E6F7A7A6C6500DB
:101D70004E6F7A7A6C650046616E2073706565649B
:101D80000046616E2073706565640054656D706512
:101D90007261747572650053746F7265206D656D44
:101DA0006F72790042656400426564004E6F7A7A12
:101DB0006C65004E6F7A7A6C650046616E207370B8
:101DC0006565640046616E207370656564005465E6
:101DD0006D7065726174757265000000211042209B
:101DE00063308440A550C660E770088129914AA1FC
:101DF0006BB18CC1ADD1CEE1EFF131121002733273
:101E00005222B5529442F772D662399318837BB34B
:101E10005AA3BDD39CC3FFF3DEE362244334200402
:101E20000114E664C774A44485546AA54BB528859B
:101E30000995EEE5CFF5ACC58DD553367226111652
:101E40003006D776F6669556B4465BB77AA71997EB
:101E50003887DFF7FEE79DD7BCC7C448E5588668DA
:101E6000A7784008611802282338CCC9EDD98EE93B
:101E7000AFF9488969990AA92BB9F55AD44AB77AB2
:101E8000966A711A500A333A122AFDDBDCCBBFFB8B
:101E90009EEB799B588B3BBB1AABA66C877CE44CC2
:101EA000C55C222C033C600C411CAEED8FFDECCDDB
:101EB000CDDD2AAD0BBD688D499D977EB66ED55E92
:101EC000F44E133E322E511E700E9FFFBEEFDDDF2B
:101ED000FCCF1BBF3AAF599F788F8891A981CAB1B7
:101EE000EBA10CD12DC14EF16FE18010A100C230E9
:101EF000E3200450254046706760B9839893FBA3A4
:101F0000DAB33DC31CD37FE35EF3B1029012F32238
:101F1000D2323542145277625672EAB5CBA5A895F3
:101F200089856EF54FE52CD50DC5E234C324A01488
:101F300081046674476424540544DBA7FAB7998783
:101F4000B8975FE77EF71DC73CD7D326F2369106D8
:101F5000B01657667676154634564CD96DC90EF9CB
:101F60002FE9C899E9898AB9ABA944586548067828
:101F70002768C018E1088238A3287DCB5CDB3FEBE3
:101F80001EFBF98BD89BBBAB9ABB754A545A376A78
:101F9000167AF10AD01AB32A923A2EFD0FED6CDDB3
:101FA0004DCDAABD8BADE89DC98D267C076C645CC8
:101FB000454CA23C832CE01CC10C1FEF3EFF5DCFC3
:101FC0007CDF9BAFBABFD98FF89F176E367E554E18
:101FD000745E932EB23ED10EF01E7C3C3E5E2B3DD5
:101FE0003F2F5B5D3B2C2A225C00526573656E645B
:101FF0003A20006F6B00544845524D414C205255D9
:102000004E4157415900546865726D616C2052759C
:102010006E617761790048656174696E67206661F9
:10202000696C65640048656174696E672066616902
:102030006C6564004B494C4C45442E20004B494C88
:102040004C45442E2000627573793A207061757397
:10205000656420666F7220696E70757400627573B6
:10206000793A2070617573656420666F72207573AC
:10207000657200627573793A2070726F636573736D
:10208000696E67005072696E7465722068616C7465
:1020900065642E206B696C6C28292063616C6C650B
:1020A0006421000000000000000000000000005754
:1020B00061726E696E673A20486F6D696E67204283
:1020C000756D702044697669736F72203C20310011
:1020D0000000A0400000A0400000004000005C4361
:1020E00000005C4300004843FFFFFF4E657874200A
:1020F000506F696E74002569202F20257500436C90
:1021000069636B20746F20426567696E00486F6D6C
:10211000696E672058595A00473238004C65766519
:102120006C206265640043616E63656C004D3730FE
:1021300031004D373032004D3830005377697463C9
:102140006820706F776572206F6E004D38310053D4
:10215000776974636820706F776572206F666600B8
:10216000436F6F6C646F776E005072656865617461
:1021700020414253005072656865617420504C41A3
:1021800000556E6C6F6164696E672046696C616DA5
:10219000656E74004C6F6164696E672046696C619E
:1021A0006D656E74004D6F76652061786973004CC3
:1021B0006576656C206265640047323800476F20A1
:1021C000686F6D65004D61696E004D6F76652058D2
:1021D000004D6F76652059004D6F7665205A004599
:1021E000787472756465720045787472756465728E
:1021F000004D6F7665205A004D6F76652059004D71
:102200006F76652058004D6F7665206178697300A0
:102210004D6F766520302E316D6D004D6F766520E7
:10222000316D6D004D6F76652031306D6D005072EF
:102230006570617265004572726F722077726974A1
:10224000696E6720746F20454550524F4D21002024
:102250006279746573290053657474696E677320BD
:1022600053746F72656420280020746F6F206C6F48
:102270006E6720657874727573696F6E2070726511
:1022800076656E7465640020636F6C642065787495
:10229000727573696F6E2070726576656E746564B1
:1022A000004D363030004368616E67652066696CAA
:1022B000616D656E7400466C6F7700466C6F7700D9
:1022C00046616E2073706565640046616E207370B0
:1022D0006565640042656400426564004E6F7A7A09
:1022E0006C65004E6F7A7A6C6500426564205A0016
:1022F000426564205A0053706565640053706565DB
:1023000064004D61696E00507265686561742050AB
:102310004C412042656400507265686561742050CC
:102320004C4100507265706172650050726568655D
:1023300061742041425320426564005072656865B3
:102340006174204142530050726570617265004CA7
:102350006576656C696E6720446F6E6521004D6F10
:102360007665205A00473238004E414E494E495456
:1023700059494E46CDCCCC3D0AD7233C17B7D1386E
:1023800077CC2B329595E6241FB14F0A00002041EF
:102390000000C84200401C4620BCBE4CCA1B0E5A5E
:1023A000AEC59D7471C391C411241FBECFEFD1E29D
:1023B000DEBFCDBF00E00CBF14E0A0E0B2E0E6E974
:1023C000F0EA01E00BBF02C007900D92A83AB107F6
:1023D000D9F724E1A8EAB4E001C01D92AB31B207FD
:1023E000E1F711E1C3EDD1E100E006C02197010959
:1023F000802FFE010E9439C5C23DD10780E0080749
:10240000A9F70E9467B40C9439D00C9400002F9265
:102410003F924F925F926F927F928F929F92AF9274
:10242000BF92CF92DF92EF92FF920F931F93CF93C1
:10243000DF93CDB7DEB7C657D1090FB6F894DEBF2C
:102440000FBECDBF2091FE063091FF0640E6429FB1
:10245000C001439F900D112482589A4F9093BD0460
:102460008093BC048091901380FF22C0EFE3F8E1D9
:102470008491882341F09091C00095FFFCCF809318
:10248000C6003196F5CFE091BC04F091BD04819176
:10249000882339F09091C00095FFFCCF8093C6004F
:1024A000F6CF8091C00085FFFCCF8AE08093C60004
:1024B0002091BC043091BD04F90180812F5F3F4F12
:1024C0008032D1F3F093BD04E093BC048E3469F004
:1024D0001091BC040091BD046AE270E0812F902F3E
:1024E0000E94E2C80097D1F420C0818190ED980F3E
:1024F0009A3010F08D3261F73296DF0131962C91CF
:1025000020532A30D0F3CD01FC01019620812032E6
:10251000D9F3F093BD04E093BC04DACFFC0131960B
:102520008291803231F08A3221F0A12FB02F9D911B
:1025300002C01082F5CFFD01808111968032D9F35F
:1025400080538A3020F0EFE3F8E10C94692900E031
:1025500010E02AE0209FB001219F700D11248B0113
:10256000005311098191080F111D87FD1A95808173
:1025700080538A3078F35F013196D5018C91803297
:10258000D1F3B092B804A092B70421E030E03093C8
:102590003512209334129D3409F4CEC7943511F4CA
:1025A0000C94C128973411F00C9432290430110591
:1025B00009F4CDC338F402301105E8F40E9451311A
:1025C0000C9456290A35110509F437C750F40C311B
:1025D000110509F4C0C30D31110509F4C2C40C94EE
:1025E00056290B35110509F42CC70C35110509F4D2
:1025F0002DC70C94562980911302882311F40C9452
:1026000056290E94D32C89E40E947F2C882329F02C
:102610000E94AA2C6B017C0103C0C12CD12C760135
:102620008AE40E947F2C882349F00E94AA2C63969A
:102630006CAF7DAF8EAF9FAF639706C063961CAE45
:102640001DAE1EAE1FAE639763962CAD3DAD4EAD75
:102650005FAD6397C701B6010E947DC7AF966CAFAF
:102660007DAF8EAF9FAFAF972091C5133091C6134A
:102670004091C7135091C81323962CAF3DAF4EAF76
:102680005FAF2397A701960123966CAD7DAD8EAD0C
:102690009FAD23970E944AC5A7966CAF7DAF8EAFC2
:1026A0009FAFA7974091C9135091CA136091CB1364
:1026B0007091CC132B964CAF5DAF6EAF7FAF2B9765
:1026C00063962CAD3DAD4EAD5FAD63972B966CAD73
:1026D0007DAD8EAD9FAD2B970E944AC5AB966CAF7A
:1026E0007DAF8EAF9FAFAB976091CD137091CE133E
:1026F0008091CF139091D0132F966CAF7DAF8EAF9A
:102700009FAF2F979B01AC0160914A1270914B12C1
:1027100080914C1290914D120E9449C567966CAF02
:102720007DAF8EAF9FAF679780914E1290914F1201
:10273000A0915012B0915112E3968CAF9DAFAEAF05
:10274000BFAFE3972091D1133091D2134091D313AF
:102750005091D4136B962CAF3DAF4EAF5FAF6B97DC
:10276000B701A60170584BAF5CAF6DAF7EAF6396FB
:102770006CAD7DAD8EAD9FAD6397905827966CAFD5
:102780007DAF8EAF9FAF27978091421290914312F9
:10279000A0914412B09145126F968CAF9DAFAEAF31
:1027A000BFAF6F97A7962CAD3DAD4EAD5FADA79770
:1027B000BC01CD010E9449C56B017C0120914612EC
:1027C000309147124091481250914912A3962CAF74
:1027D0003DAF4EAF5FAFA397AB962CAD3DAD4EADC9
:1027E0005FADAB97A3966CAD7DAD8EAD9FADA3975E
:1027F0000E9449C54B015C01A70196016BAD7CAD00
:102800008DAD9EAD0E941DC92B013C01A501940117
:1028100027966CAD7DAD8EAD9FAD27970E941DC9EB
:102820009B01AC01C301B2010E944AC52B013C01CE
:10283000A50194016BAD7CAD8DAD9EAD0E941DC90F
:102840004B015C01A701960127966CAD7DAD8EAD65
:102850009FAD27970E941DC99B01AC01C501B40122
:102860000E9449C5A30192010E94BDC56B017C0174
:1028700020E030E0A9010E94D7CC87FF0AC02BEDF1
:102880003FE049EC50E4C701B6010E944AC56B0124
:102890007C010230110551F42BED3FE049EC50E48E
:1028A000C701B6010E9449C56B017C0120E030E000
:1028B000A901C701B6010E94D7CC81112AC06F9629
:1028C0002CAD3DAD4EAD5FAD6F9723966CAD7DAD3C
:1028D0008EAD9FAD23970E94D7CC81111AC0A396CD
:1028E0002CAD3DAD4EAD5FADA3972B966CAD7DADE0
:1028F0008EAD9FAD2B970E94D7CC81110AC02BEDD6
:102900003FE049EC50E4C701B6010E944AC56B01A3
:102910007C01AF962CAD3DAD4EAD5FADAF97C7011D
:10292000B6010E941DC967962CAD3DAD4EAD5FADA1
:1029300067975F770E947DC74B015C012FE632E10C
:1029400043E85AE30E94D7CC87FDFDC1C501B4011D
:102950000E94BFC60E9493C61B01672B19F4222454
:102960002394312CB10180E090E00E94DBCC4B013C
:102970005C019B01AC01C701B6010E9426C62396EB
:102980006CAF7DAF8EAF9FAF2397A5019401679683
:102990006CAD7DAD8EAD9FAD67970E9426C66F96DC
:1029A0006CAF7DAF8EAF9FAF6F976B962CAD3DAD8B
:1029B0004EAD5FAD6B97E3966CAD7DAD8EAD9FADCB
:1029C000E3970E9449C5A50194010E9426C6A396DB
:1029D0006CAF7DAF8EAF9FAFA39720E030E040E0BB
:1029E0005FE323966CAD7DAD8EAD9FAD23970E94C6
:1029F0001DC923962CAD3DAD4EAD5FAD23970E9412
:102A00001DC99B01AC0160E070E080E89FE30E947B
:102A100049C567966CAF7DAF8EAF9FAF67972F9616
:102A20004CAD5DAD6EAD7FAD2F9749875A876B87F3
:102A30007C876B966CAD7DAD8EAD9FAD6B976D87D2
:102A40007E878F87988B6091950270919602072EF2
:102A5000000C880B990B0E94DDCC20917A023091FA
:102A60007B0240917C0250917D020E941DC920E0B2
:102A700030E040E752E40E9426C620E030E048EC17
:102A800052E40E9426C66B966CAF7DAF8EAF9FAFAF
:102A90006B974BAC5CAC6DAC7EAC28961FAE2897A8
:102AA00081E090E02D969FAF8EAF2D972D964EAD85
:102AB0005FAD2D974215530509F41BC128969FADB4
:102AC00028979F5F28969FAF289799310CF04BC0AD
:102AD00067962CAD3DAD4EAD5FAD679727966CAD5B
:102AE0007DAD8EAD9FAD27970E941DC96B017C0106
:102AF00023962CAD3DAD4EAD5FAD2397B201C30122
:102B00000E941DC9A70196010E944AC57B018C0144
:102B100067962CAD3DAD4EAD5FAD6797B201C30179
:102B20000E941DC94B015C0123962CAD3DAD4EADFD
:102B30005FAD239727966CAD7DAD8EAD9FAD27978A
:102B40000E941DC99B01AC01C501B4010E9449C589
:102B50002B013C01A701B80127964CAF5DAF6EAFCA
:102B60007FAF27975CC02D96AEADBFAD2D97BD0151
:102B700080E090E00E94DBCC23962CAD3DAD4EADC5
:102B80005FAD23970E941DC94B015C010E9423C6C3
:102B90006B017C01C501B4010E9442C84B015C017C
:102BA000A70196016BAD7CAD8DAD9EAD0E941DC998
:102BB0002B013C01A501940163966CAD7DAD8EADFA
:102BC0009FAD63970E941DC99B01AC01C301B20177
:102BD0000E944AC52B013C01A50194016BAD7CAD5F
:102BE0008DAD9EAD0E941DC94B015C01A7019601F0
:102BF00063966CAD7DAD8EAD9FAD63970E941DC990
:102C00009B01AC01C501B4010E9449C527966CAF78
:102C10007DAF8EAF9FAF279728961FAE2897920162
:102C2000A301A7966CAD7DAD8EAD9FADA7970E9419
:102C30004AC569837A838B839C8327962CAD3DADEF
:102C40004EAD5FAD2797AB966CAD7DAD8EAD9FADB4
:102C5000AB970E944AC56D837E838F8398876F965A
:102C60002CAD3DAD4EAD5FAD6F9769857A858B8597
:102C70009C850E944AC569877A878B879C87A39623
:102C80002CAD3DAD4EAD5FADA3976D857E858F8537
:102C900098890E944AC56D877E878F87988BCE0161
:102CA00001960E94F784E984FA840B851C852D81A6
:102CB0003E814F81588569817A818B819C81E09129
:102CC0006E0CEF936B968CAC9DACAEACBFAC6B97BF
:102CD000FE013D966F010E94A8972D962EAD3FAD47
:102CE0002D972F5F3F4F2D963FAF2EAF2D970F9013
:102CF000DDCEE0904A12F0904B1200914C121091F0
:102D00004D12209146123091471240914812509135
:102D10004912609142127091431280914412909135
:102D20004512E0916E0CEF936B968CAC9DACAEAC03
:102D3000BFAC6B97FEE4CF2EF2E1DF2E0E94A89786
:102D40000E940D2B0F900E94FF300C9456290E9478
:102D500009310C9456290E940241E090570F1092BD
:102D6000570F80917A0290917B02A0917C02B091E2
:102D70007D028093A8049093A904A093AA04B09321
:102D8000AB0480919502909196029093BA0480933F
:102D9000B90484E690E090939602809395020E9495
:102DA000FF3081E080930D020E94032B10927A0283
:102DB00010927B0210927C0210927D0288E50E94A4
:102DC0007F2C082F89E50E947F2CF82E8AE50E942F
:102DD0007F2C182FF11005C0011105C091E0982734
:102DE00005C0011102C090E001C0982F909300022D
:102DF00020E030E040EA50E46091CD137091CE13B2
:102E00008091CF139091D0130E94D7CC1816B4F1B3
:102E100080E090E0A0EAB0E480934A1290934B12D5
:102E2000A0934C12B0934D1220E030E040E752E402
:102E300060914D0C70914E0C80914F0C9091500C04
:102E40000E941DC960937A0270937B0280937C027A
:102E500090937D020E94302B0E94024180914A1281
:102E600090914B12A0914C12B0914D128093CD13C2
:102E70009093CE13A093CF13B093D0138091000200
:102E8000811102C0002321F080E090E00E94557D76
:102E900080910002811102C0FF2021F081E090E0CA
:102EA0000E94557D80910002811102C0112321F002
:102EB00082E090E00E94557D0E94172B10920D0237
:102EC000EE2079F180910002882359F180E090E0B2
:102ED000A0E8B0E48093CD139093CE13A093CF13CA
:102EE000B093D0130E94172B81E08093570F10925C
:102EF000CD131092CE131092CF131092D0130E94C4
:102F0000032B80E090E8ABEBB4E480937A029093DB
:102F10007B02A0937C02B0937D020E94302B0E9422
:102F200002418091A8049091A904A091AA04B091B3
:102F3000AB0480937A0290937B02A0937C02B093BF
:102F40007D028091B9049091BA0490939602809387
:102F500095020E94FF3010927D050E943F2A0C943A
:102F6000562983E50E947F2C8823D9F00E94922C59
:102F700085309105C0F0E4EEF2E08491882341F0C1
:102F80009091C00095FFFCCF8093C6003196F5CF9D
:102F90008091C00085FFFCCF8AE08093C6000C942E
:102FA000562980E090E08230910509F4C9C024F4EC
:102FB000019709F4B5C007C08330910509F49EC19B
:102FC000049709F41AC28091570F811103C0E6ECEF
:102FD000F2E09AC0ECEBF2E08491882341F090910A
:102FE000C00095FFFCCF8093C6003196F5CF62E01C
:102FF00070E080E090E00E943F5A8091C00085FF21
:10300000FCCF8CE28093C60062E070E080E090E04C
:103010000E943F5AE9EAF2E08491882341F09091BE
:10302000C00095FFFCCF8093C6003196F5CF64E0D9
:1030300070E080E090E00E943F5AEDE9F2E0849178
:10304000882341F09091C00095FFFCCF8093C6008B
:103050003196F5CF6091580F7091590F80915A0FAA
:1030600090915B0F45E00E94655AEBE8F2E0849195
:10307000882341F09091C00095FFFCCF8093C6005B
:103080003196F5CF8091C00085FFFCCF8AE0809318
:10309000C60077E5E72E7FE0F72EEAE0DE2E00E0BF
:1030A00010E0E8E8F2E08491882341F09091C000BC
:1030B00095FFFCCF8093C6003196F5CFF701E00F66
:1030C000F11F658176818781908545E00E94655A70
:1030D0000C5F1F4F0830110521F78091C00085FF5C
:1030E000FCCFD092C60058E0E50EF11C67E6E6166C
:1030F0006FE0F606A1F60C9456299091C00095FF5A
:10310000FCCF8093C600319684918111F6CF8091D7
:10311000C00085FFFCCF8AE08093C6000C9456293E
:103120000E94E86C10920202109201028DE792E078
:1031300090930612809305120E945B2D0C945629E1
:10314000009101021091020217FF16C0E5E5F2E0BE
:103150008491882341F09091C00095FFFCCF80932B
:10316000C6003196F5CF8091C00085FFFCCF8AE084
:103170008093C6000C9456290115110579F480E05E
:1031800090E0A0E8B0E48093CD139093CE13A09389
:10319000CF13B093D0130E94172B29C08091CD1369
:1031A0009091CE13A091CF13B091D013F801319725
:1031B0009F0121703327F595E795E0FF06C041E0B8
:1031C00050E0BA01621B730B9B01EE0FFF1FE20F71
:1031D000F31FEE0FFF1FEE0FFF1FE95AF04F85831D
:1031E0009683A783B087043011050CF050C0780196
:1031F00071E0E722FF24C8019595879580FF06C0FE
:1032000021E030E0D901AE19BF097D011CE8189F0B
:10321000B001199F700D1124685D7F4F072E000CBF
:10322000880B990B0E94DDCC9B01AC011E9DC00157
:103230001F9D900D11248896BC01990F880B990B46
:10324000E4962FAFE497E5963FAFE597E6964FAF4C
:10325000E697E7965FAFE7970E94DDCCE4962FAD47
:10326000E497E5963FADE597E6964FADE697E7968E
:103270005FADE7970E94AA2B809101029091020214
:10328000019690930202809301020C94562980E0EB
:1032900090E0A0E1B1E48093CD139093CE13A0937E
:1032A000CF13B093D0130E946D2B0E940241E2E431
:1032B000F2E08491882341F09091C00095FFFCCF0B
:1032C0008093C6003196F5CF8091C00085FFFCCF7A
:1032D0008AE08093C6008FEF9FEF90930202809365
:1032E000010281E08093570F8EE392E090930612E3
:1032F000809305120E945B2D0C94562988E50E944C
:103300007F2C8823B9F00E949F2C8B01015011095A
:1033100002301105F0F0E7E1F2E08491882311F426
:103320000C9456299091C00095FFFCCF8093C60065
:103330003196F3CFEEE2F2E08491882311F40C94FD
:1033400056299091C00095FFFCCF8093C60031961E
:10335000F3CF89E50E947F2C8823C9F00E949F2C1F
:103360007B01B1E0EB1AF108E2E0EE16F104F0F0B7
:10337000E0EFF1E08491882311F40C9456299091A8
:10338000C00095FFFCCF8093C6003196F3CFE7E0F5
:10339000F2E08491882311F40C9456299091C00096
:1033A00095FFFCCF8093C6003196F3CF8AE50E944B
:1033B0007F2C882399F00E94AA2CF701EE0FFF1FA3
:1033C000E00FF11FEE0FFF1FEE0FFF1FE95AF04F46
:1033D00065837683878390870C945629E0EEF1E02D
:1033E0008491882311F40C9456299091C00095FF84
:1033F000FCCF8093C6003196F3CF8AE50E947F2CE4
:10340000882361F00E94AA2C6093580F7093590F83
:1034100080935A0F90935B0F0C945629E0EDF1E0E6
:103420008491882311F40C9456299091C00095FF43
:10343000FCCF8093C6003196F3CF1092B6040C9463
:10344000562981E08093B6040C94572985E40E94A4
:103450007F2CB82E811102C00E94024156ED852EAC
:1034600052E0952E65ECC62E63E1D62E76E3E72E6C
:1034700072E1F72EA12C00E010E0D4018D914D01F6
:103480000E947F2C8823F1F1F60120813181428155
:103490005381E4962FAFE497E5963FAFE597E69624
:1034A0004FAFE697E7965FAFE7970E94AA2CD60149
:1034B0006D937D938D939C931397E4962FADE49732
:1034C000E5963FADE597E6964FADE697E7965FAD9B
:1034D000E79703301105B1F00E9449C59B01AC018B
:1034E000F70160817181828193810E944AC5D70171
:1034F0006D937D938D939C931397C8010E94392CF3
:10350000AA24A3940F5F1F4FB4E0CB0ED11CE4E0BC
:10351000EE0EF11C0430110509F0AFCFAA2021F006
:103520000E94172B0C945629BB2011F40C94562999
:103530000E940DB00C9456290137110509F42CC7CF
:1035400008F0E3C00A32110509F4E8C508F068C0C4
:103550000831110509F475C308F03EC002311105A8
:1035600011F40C94DD24D8F40230110508F47BC268
:103570000131110511F00C94562960E08FE293E0BF
:103580000E940F3B5F988A989FB7F894809108013A
:103590008E7F809308019FBF12980C9456290531A5
:1035A000110509F444C340F40431110511F00C94E1
:1035B0005629E6E4F3E0FDC20631110509F43BC3E8
:1035C0000731110511F00C94562940E061E0C50166
:1035D0000E94CE680C9456290C31110509F4A1C340
:1035E00038F40A31110509F441C308F435C34CC35A
:1035F0000F31110509F41FC530F40E31110509F41E
:1036000097C30C9456290032110509F4C4C4013241
:10361000110511F00C9456290E9462B20C9456299F
:103620000535110511F40C94042558F500351105E4
:1036300011F40C94AD2488F40C34110509F4B0C5D0
:103640000D34110509F4C6C50B34110511F00C94A5
:1036500056290E9418C40C9456290235110511F4FC
:103660000C94D62410F40C94BA240335110511F4EB
:103670000C94D9240435110511F40C94DD240C9418
:1036800056290B36110511F40C94A02430F5083698
:10369000110509F4A3C5B0F40C35110511F00C9413
:1036A000562936ED832E32E0932E09EF13E145E4DF
:1036B000A42E4CE0B42E81E993E19CAF8BAF312C6A
:1036C0000C9480250936110509F4A7C60A361105A0
:1036D00011F40C947D240C9456290E36110509F42E
:1036E000D8C530F40D36110509F4B8C60C94562926
:1036F0000F36110509F4DFC50037110511F00C94E0
:10370000562983EF93E00E94B87E023E110511F422
:103710000C94292808F05EC00E3B110511F40C949E
:10372000A02358F50737110509F499C198F4033718
:10373000110511F40C948E2510F40C949C2505377A
:10374000110511F00C94562960E0C5010E94253B3B
:103750000C9456290937110511F40C94A42510F482
:103760000C949E250C38110509F444C60139110545
:1037700011F40C942B260C9456290C3C110511F4D1
:103780000C94172788F4093C110511F40C94DD26DC
:103790000B3C110511F40C94FC26083C110511F0AA
:1037A0000C9456290C94CF260E3C110511F40C9460
:1037B000DB2710F40C9489270C3D110511F40C94AF
:1037C0001C280D3D110511F00C9456290E9416B4C9
:1037D0000C9456290C3AF1E01F0711F40C943B2885
:1037E000C0F50F3231E0130711F40C94322890F435
:1037F0000D3251E0150711F40C942C2810F00C94A4
:103800002F280C32114011F00C9456290E9449C304
:103810000C9456290A3981E0180711F40C943528C4
:1038200048F40039114011F00C9456290E940241CD
:103830000C945629043AB1E01B0711F40C94382873
:10384000053A114011F00C9456290E9405BD0C94C4
:1038500056290835F2E01F0711F40C944428F8F4B7
:10386000053F31E0130711F40C943E2848F4043F5F
:10387000114011F00C9456290E94BE8D0C945629CB
:10388000063F61E0160711F40C944128073F1140F0
:1038900011F00C9456290E94E3BB0C9456290E3B60
:1038A00082E0180711F40C94472808F0C5C00D3BBE
:1038B000124011F00C9456299FB7F894809108019A
:1038C0008E7F809308019FBF20E030E048EC53E4F6
:1038D0006091D1137091D2138091D3139091D4132E
:1038E0000E944AC56093D1137093D2138093D3136F
:1038F0009093D413E090CD13F090CE130091CF139A
:103900001091D0132091C9133091CA134091CB1359
:103910005091CC136091C5137091C6138091C71359
:103920009091C813E0916E0CEF93812C912CAAEF2B
:10393000AA2EA3E4BA2EB1EDCB2EB3E1DB2E0E946A
:10394000A89720E030E048E453E46091D1137091EF
:10395000D2138091D3139091D4130E944AC56093DF
:10396000D1137093D2138093D3139093D413E09018
:10397000CD13F090CE130091CF131091D01320915E
:10398000C9133091CA134091CB135091CC1360915D
:10399000C5137091C6138091C7139091C813E0911D
:1039A0006E0CEF93812C912CE8ECAE2EE2E4BE2E4F
:1039B0000E94A897A50194016091D1137091D21330
:1039C0008091D3139091D4130E944AC56093D11370
:1039D0007093D2138093D3139093D413E090CD13AC
:1039E000F090CE130091CF131091D0132091C913F2
:1039F0003091CA134091CB135091CC136091C513F1
:103A00007091C6138091C7139091C813E0916E0C0A
:103A1000EF930E94A8970E9402419FB7F89480916B
:103A200008018160809308019FBF10926C050F9080
:103A30000F900F900C945629003AB3E01B0709F43D
:103A4000F0C2073E134011F00C94562981E0809398
:103A50001302109233050E94B1850C945629E9EBAC
:103A6000F3E00C94AF256CE070E08AE293E00E94F2
:103A7000E73080E50E947F2C882371F00E94922C11
:103A80006C01990FEE08FF0811E0C114D104E104A4
:103A9000F10431F410E004C010E0C12CD12C760107
:103AA00083E50E947F2C8823D9F00E94AA2C20E075
:103AB00030E04AE754E40E941DC90E9493C66B019E
:103AC0007C0111110FC0672B682B692B59F4D501AC
:103AD0008C91882339F061E0C5010E94253B07C025
:103AE0001123A9F360E089E193E00E940F3B81E09C
:103AF00080936C0C10926B0C0E9402410E94FF306C
:103B0000C114D104E104F10441F180912C1290918F
:103B10002D12A0912E12B0912F12C80ED91EEA1E9E
:103B2000FB1E83E090E090933512809334120E9444
:103B3000D034DC01CB018C199D09AE09BF09B7FD5A
:103B400002C00C9494298091340582FF02C00C9429
:103B5000942980E00E94F77EEACF83E090E0909382
:103B60003512809334128091340582FD04C080E0C8
:103B70000E94F77EF8CF81E090E090933512809319
:103B8000341280917A0F60E0882331F08AEF92E05E
:103B90000E940F3B0C94562989E093E00E940F3B52
:103BA0000C9456299091C00095FFFCCF8093C600DD
:103BB000319684918111F6CF8091C00085FFFCCFB2
:103BC0008AE08093C600109200121092FF1140E02C
:103BD00050E0BA018BEA9FE00E94BC9267EA7FE066
:103BE000CE0101960E949E8F40E050E0BE016F5FC3
:103BF0007F4F80E794E00E94D966CE0101960E9433
:103C00009F7EE8E3F3E08491882341F09091C00027
:103C100095FFFCCF8093C6003196F5CF8091C00010
:103C200085FFFCCF8AE08093C6000C9456290E9441
:103C3000225C0C94562910927A0F10927B0F0C94F0
:103C4000562980917B0F882319F081E080937A0FA9
:103C50000E9418C40C94562980917A0F882311F47D
:103C60000C94562910927A0F0C94562980917B0F50
:103C7000882311F40C94562983E50E947F2C81112E
:103C80000C94A0290C94562980917B0F811103C0BC
:103C9000E8E6F3E03AC0E6E5F3E08491882341F0FA
:103CA0009091C00095FFFCCF8093C6003196F5CF70
:103CB0006091F6117091F7118091F8119091F911BE
:103CC0004AE00E94CA598091C00085FFFCCF8FE274
:103CD0008093C6006091F2117091F3118091F411FC
:103CE0009091F5114AE00E94CA598091C00085FF69
:103CF000FCCF8AE08093C6000C9456299091C000B6
:103D000095FFFCCF8093C600319684918111F6CF48
:103D10008091C00085FFFCCF8AE08093C6000C94A0
:103D2000562940E060E0C5010E94CE680C945629F7
:103D300080917B0F882311F40C94562985E491E13E
:103D40000E948A9285E491E10E9457761092790F41
:103D50001092780FC090B704D090B80480917B0F78
:103D6000882311F40C94562985E491E10E9457763A
:103D700010927A0FFE0131967F01CF010E94C88F09
:103D800087EA9FE09093C70F8093C60FD6018C916E
:103D90008F3209F07EC06FE270E0C6010E94E2C877
:103DA0008C010F5F1F4F4AE0742E0115110509F4B5
:103DB00076C06FE270E0C8010E94E2C85C01009723
:103DC00009F46EC00817190708F06AC04C01801A80
:103DD000910AA401B801CE0180960E940BC9E0E2CD
:103DE000F0E0EC0FFD1FE80DF91D10828E01005E62
:103DF0001F4FF8018191882339F09091C00095FF01
:103E0000FCCF8093C600F6CF8091C00085FFFCCF29
:103E10007092C6006091C60F7091C70F6115710551
:103E200011F06C5F7F4F21E0AE01405E5F4FCE012D
:103E300005960E94127C811124C0EEE9F3E0849182
:103E4000882371F09091C00095FFFCCF8093C6004D
:103E50003196F5CF9091C00095FFFCCF8093C600BE
:103E6000F80181918F018111F5CF8091C00085FF0C
:103E7000FCCF8EE28093C600C7010E949F7E0C9407
:103E80005629F092C70FE092C60F85010F5F1F4FB2
:103E90008CCF88EC9FE09093C70F8093C60F86016C
:103EA0006091C60F7091C70F6115710511F06C5FBD
:103EB0007F4F18A21BA222E0A801CE0180960E948B
:103EC000127C811102C0D12C14C0CE0180960E94B8
:103ED0002B5B8823C1F361E0CE0180960E9460765F
:103EE000009789F325EEDC012C931BA20E943890E9
:103EF000D82ECE0180960E94F930D11003C0E6E89A
:103F0000F3E02FC0E8E7F3E08491882341F090913B
:103F1000C00095FFFCCF8093C6003196F5CFF80125
:103F20008191882339F09091C00095FFFCCF809358
:103F3000C600F6CF8091C00085FFFCCF8AE0809359
:103F4000C6001092F6111092F7111092F81110920B
:103F5000F9111CC09091C00095FFFCCF8093C60062
:103F6000319684918111F6CFF8018191882339F03F
:103F70009091C00095FFFCCF8093C600F6CF809152
:103F8000C00085FFFCCF8EE28093C600C7010E946F
:103F90009F7E0C94562980917A0F81110E940241D4
:103FA0000091B7041091B80461E270E0C8010E946A
:103FB000E2C8009719F08C010F5F1F4F80E50E9447
:103FC0007F2C882349F0FF24F3948091AC049091D6
:103FD000AD048017910708F0F12C80917B0F8823A6
:103FE00011F40C9456294F2D61E0C8010E94CE684F
:103FF00083E50E947F2C882349F08091AC04909146
:10400000AD048017910710F40C94B22980917B0FB6
:10401000882319F081E080937A0FF1100C945629CF
:1040200017CE81E08093790F40E060E0C5010E94E7
:10403000CE680C9456290E94DF5BBC0180E090E0C2
:104040002CE330E040E050E00E94FECF7F936F937E
:104050003F932F9382EB93E09F938F938E010F5F9B
:104060001F4F1F930F930E94A8CC0FB6F894DEBF8A
:104070000FBECDBFEFE3F8E18491882341F090912A
:10408000C00095FFFCCF8093C6003196F5CFF801B4
:104090008191882339F09091C00095FFFCCF8093E7
:1040A000C600F6CF8091C00085FFFCCF8AE08093E8
:1040B000C60060E0C8010E94253B8091071288235A
:1040C00011F40C9456291092071200916E0C10E016
:1040D000C801880F991F9C01245F3D4E7901D901C9
:1040E0006D917C91072E000C880B990B0E94DDCC02
:1040F00020917102309172024091730250917402CA
:104100000E9470C7181614F00C945629F7011182FA
:104110001082C8010E94963D0C94562983E50E94A6
:104120007F2C882311F40C9456290E94922C7C0138
:104130008F3F910519F010F00C94562980E50E94EC
:104140007F2C882339F00E94922C8C0197FF04C0A9
:104150000C9456290DE010E0E0EAF2E08191919193
:104160000817190711F40C94562922E0E63DF207CE
:10417000A9F761E0802F0E9495336E2D802F0E9459
:104180005333B701802F0E94D1330930110511F04C
:104190000C945629F0920912E09208120C945629B8
:1041A00080916C0F90916D0F019711F00C9456292E
:1041B00082E090E090936D0F80936C0F0E94D0345A
:1041C0006093740F7093750F8093760F9093770FB1
:1041D0000C9456290E940D5C0C94562988E690E0B8
:1041E0000E94CEB381110C9456298091901383FFC5
:1041F00002C00C94562983E50E947F2C882311F479
:104200000C9456290E94AA2C6B017C010091521239
:1042100010E0C801880F991FAC01445F5D4E5A0140
:10422000C701B6010E948EC6D5016D937C93C8016B
:104230000E94963D20E030E04AEA52E4C701B60110
:104240000E94D7CC181644F00E940D5C60E08EEC02
:1042500093E00E940F3B02C00E9418C4E0915212EA
:10426000B4E0EB9FF0011124E459FC4E2081318130
:1042700042815381C701B6010E9470C7181614F01D
:104280000C94562960E081EC93E00E940F3B0C9463
:1042900056298EE40E947F2C882311F40C94562911
:1042A0000E949F2C6093AE047093AF048093B0047F
:1042B0009093B104FBC783E50E947F2C882319F0FB
:1042C0000E94922C01C080E080939013EFE3F8E10C
:1042D0008491882341F09091C00095FFFCCF80939A
:1042E000C6003196F5CFECEEF3E08491882341F0DF
:1042F0009091C00095FFFCCF8093C6003196F5CF1A
:1043000080919013882399F14EED53E020E030E046
:1043100060E07CE28091901390E0022E02C09595BF
:1043200087950A94E2F780FF1AC0A1E0A60F6623E2
:1043300031F08091C00085FFFCCF7093C600FA0178
:1043400085919491FC016491662341F0E091C00055
:10435000E5FFFCCF6093C6000196F4CF6A2F2F5F74
:104360003F4F4E5F5F4F25303105A1F60DC0E8EE9F
:10437000F3E08491882341F09091C00095FFFCCF39
:104380008093C6003196F5CF8091C00085FFFCCFA9
:104390008AE08093C6008AC783E50E947F2C882329
:1043A00059F00E94922C809379028D3308F47EC7D5
:1043B0008CE3809379027AC7EFE3F8E18491882354
:1043C00041F09091C00095FFFCCF8093C6003196DC
:1043D000F5CF4091790250E060E070E08CEF93E01F
:1043E0000E94C5308091C00085FFFCCF8AE0809399
:1043F000C6005CC78091901383FD58C783E50E9477
:104400007F2C882309F452C70E94AA2C0E948EC6D2
:1044100070930B1260930A1249C789E690E00E94DC
:10442000CEB3811116C0E3E0F4E08491882341F01B
:104430009091C00095FFFCCF8093C6003196F5CFD8
:104440000E94C9B18091C00085FFFCCF8AE08093B3
:10445000C6001092351210923412A7C78DE690E074
:104460000E94CEB3811122C78091901383FD1EC795
:1044700083E50E947F2CF82E811106C082E50E9400
:104480007F2C882309F441C00E94AA2C4B015C01B7
:104490000091521210E0C801880F991F9C01245FFF
:1044A0003D4E6901C501B4010E948EC6D6016D93CF
:1044B0007C93C8010E94963D20E030E04AEA52E435
:1044C000C501B4010E94D7CC18160CF45EC70E9437
:1044D0000D5C60E08DE294E00E940F3BE09152128F
:1044E00024E0E29FF0011124E459FC4E2081318147
:1044F00042815381C501B4010E9470C718162CF483
:1045000060E080E294E00E940F3B86E40E947F2CF2
:1045100080930712882351F00E94AA2C60936902AD
:1045200070936A0280936B0290936C0283E50E9401
:104530007F2C882351F00E94AA2C60937102709303
:104540007202809373029093740282E40E947F2C23
:10455000882351F00E94AA2C60936D0270936E0222
:1045600080936F02909370020091521210E0F80154
:10457000EE0FFF1FE45FFD4E60817181072E000C7E
:10458000880B990B0E94DDCC4B015C01000F111FC1
:10459000000F111FF801E459FC4E20813181428146
:1045A0005381C501B4010E94D7CC881F8827881F7A
:1045B000F1100CC069F020E030E04AEA52E4C50195
:1045C000B4010E94D7CC87FD71C602C081116EC6AE
:1045D00010926D0C412C512C3201812C912C5401E4
:1045E0001AE00E94D0346B017C01DC01CB018419FC
:1045F0009509A609B709B7FD4AC02601370138EE6B
:10460000430E33E0531E611C711C0E94C9B1ECE1E2
:10461000F4E08491882341F09091C00095FFFCCF95
:104620008093C6003196F5CF81149104A104B104A2
:10463000D9F0D501C401805F984DAF4FBF4FBC0189
:10464000CD016C197D098E099F0928EE33E040E009
:1046500050E00E94FECFCA01B9010E943F5A8091EA
:10466000C00085FFFCCF11C0EAE1F4E0849188230B
:1046700041F09091C00095FFFCCF8093C600319629
:10468000F5CF8091C00085FFFCCF1093C60080E07D
:104690000E94F77E0E94FF3020905212312CF101CF
:1046A000EE0FFF1FE45FFD4E60817181072E000C4D
:1046B000880B990B0E94DDCCF101EE0FFF1FEE0F6E
:1046C000FF1FE459FC4E20813181428153810E94B9
:1046D00049C59F7781149104A104B10469F420E0D5
:1046E00030E040E85FE30E94D7CC87FF0DC00E9416
:1046F000D0344B015C0108C020E030E040E450E4DD
:104700000E9470C718169CF380916D0C811112C025
:1047100081149104A104B10409F463CF40E1C41AE7
:1047200047E2D40AE108F108C818D908EA08FB08EA
:10473000F7FC57CF60E086E094E00E940F3BB6C5DF
:104740008091901383FDB2C560E08DE494E00E94F7
:104750000F3B83E50E947F2C182F811119C682E53B
:104760000E947F2C811114C660910A1270910B1265
:10477000072E000C880B990B0E94DDCC2091670C52
:104780003091680C4091690C50916A0C112321F012
:104790000E94D7CC87FD8AC510926D0C412C512CFC
:1047A0003201812C912C54011AE00E94D0346B010B
:1047B0007C01DC01CB0184199509A609B709B7FD75
:1047C0004AC02601370158EE450E53E0551E611CC4
:1047D000711C0E94C9B1E9E4F4E08491882341F09E
:1047E0009091C00095FFFCCF8093C6003196F5CF25
:1047F00081149104A104B104D9F0D501C401805FF2
:10480000984DAF4FBF4FBC01CD016C197D098E098A
:104810009F0928EE33E040E050E00E94FECFCA013D
:10482000B9010E943F5A8091C00085FFFCCF11C0A2
:10483000E7E4F4E08491882341F09091C00095FF73
:10484000FCCF8093C6003196F5CF8091C00085FFE4
:10485000FCCF1093C60080E00E94F77E0E94FF30DC
:1048600060910A1270910B12072E000C880B990BA5
:104870000E94DDCC9B01AC016091670C7091680CCB
:104880008091690C90916A0C0E9449C59F778114B0
:104890009104A104B10469F420E030E040E85FE352
:1048A0000E94D7CC87FF0DC00E94D0344B015C0121
:1048B00008C020E030E040E450E40E9470C71816C1
:1048C0009CF380916D0C811112C081149104A1049C
:1048D000B10409F46ACF60E1C61A67E2D60AE108BA
:1048E000F108C818D908EA08FB08F7FC5ECF60E0B9
:1048F0008DE394E00E940F3BD9C483E50E947F2C96
:10490000882321F00E94922C8C0102C00FEF10E04E
:1049100080E5F5D7882319F00E94922C02C080E030
:1049200090E098010F3F110519F010F02FEF30E0E3
:10493000892B09F0BBC43093091220930812B6C426
:1049400080E5DDD7811105C010920912109208127E
:10495000ADC4E8D7892BC1F3A9C4269A2E9881E06B
:1049600080937E0260E08AE594E00E940F3B0E9403
:10497000363B9CC40E94FB3D0E9402410E94A77EE0
:10498000109209121092081268EE73E080E090E035
:104990000E949834269A2E9A10927E0260E08AE64F
:1049A00094E00E940F3B0E94363B80C41092B504F5
:1049B0007DC481E08093B5047AC483E5A0D78823C1
:1049C00091F0C8D720E030E04AE754E40E941DC9C6
:1049D0000E9493C66093750270937602809377026B
:1049E0009093780263C488E58AD781113DC489E534
:1049F00086D7811139C48AE582D7811135C485E40F
:104A00007ED7811131C4CCC483E579D7882309F4DA
:104A10004DC4A0D720E030E04AE754E40E941DC90D
:104A20000E9493C6609330127093311280933212B9
:104A3000909333123BC4B3E03B1269C08BD72B0178
:104A40003C0120E030E040EA51E40E94D7CC87FFEF
:104A500041C0A3019201F80160817181828193813B
:104A60000E9426C66B017C019B01AC016091550C34
:104A70007091560C8091570C9091580C0E941DC952
:104A80006093550C7093560C8093570C9093580C70
:104A9000A7019601D5016D917D918D919C910E9408
:104AA0001DC9F5016083718382839383ABADBCAD77
:104AB0006D917D918D919C910E94DBCCA701960117
:104AC0000E941DC90E9493C6EBADFCAD608371834B
:104AD00082839383D8014D925D926D927C9213975D
:104AE00033940C5F1F4FF4E0AF0EB11C2BAD3CAD07
:104AF0002C5F3F4F3CAF2BAF34E0331609F4D6C3E5
:104B0000D4018D914D01FBD6882351F394CF22D748
:104B1000F8016083718382839383E2CFE8E7F4E056
:104B20008491882309F4C2C39091C00095FFFCCF03
:104B30008093C6003196F4CFA2D4B8C381E08093AD
:104B40000D028093BB04B3C310920D021092BB04FC
:104B5000ADC39091C00095FFFCCF8093C6008191BA
:104B60008111F7CF8091C00085FFFCCF8AE0809350
:104B7000C600E1E1F5E08491882341F09091C00006
:104B800095FFFCCF8093C6003196F5CF659903C0A1
:104B9000EAEAF3E009C0EFEAF3E006C09091C00052
:104BA00095FFFCCF8093C60081918111F7CF809152
:104BB000C00085FFFCCF8AE08093C600E9E0F5E005
:104BC0008491882341F09091C00095FFFCCF8093A1
:104BD000C6003196F5CF8091030181FD03C0EAEA5A
:104BE000F3E009C0EFEAF3E006C09091C00095FF42
:104BF000FCCF8093C60081918111F7CF8091C000D6
:104C000085FFFCCF8AE08093C600E1E0F5E0849167
:104C1000882341F09091C00095FFFCCF8093C6009F
:104C20003196F5CF4B9903C0EAEAF3E009C0EFEA09
:104C3000F3E006C09091C00095FFFCCF8093C600C2
:104C400081918111F7CF8091C00085FFFCCF8AE070
:104C50008093C6002BC383E552D6882341F162D6E8
:104C6000823010F1ECE1F8E18491882341F09091D9
:104C7000C00095FFFCCF8093C6003196F5CFE9E1E7
:104C8000F5E08491882341F09091C00095FFFCCF1E
:104C90008093C6003196F5CF8091C00085FFFCCF90
:104CA0008AE08093C60002C3813009F43CC088E4E6
:104CB00026D6882389F036D68A3A91053CF085308D
:104CC00041E094072CF084E091E002C08AEA90E091
:104CD000909317128093161286E411D6882379F0E8
:104CE00021D68F3F910519F014F08FEF90E097FFD8
:104CF00002C080E090E0909319128093181282E431
:104D0000FED5882309F4D2C20DD68838910514F057
:104D100087E890E097FF02C080E090E09093151242
:104D200080931412C3C288E4EAD5882389F0FAD5A7
:104D30008A3A91053CF0853051E095072CF084E0EB
:104D400091E002C08AEA90E090931D1280931C12B9
:104D500086E4D5D5882379F0E5D58F3F910519F004
:104D600014F08FEF90E097FF02C080E090E0909306
:104D70001F1280931E1282E4C2D5882309F496C2C2
:104D8000D1D58838910514F087E890E097FF02C0EC
:104D900080E090E090931B1280931A1287C288ECF7
:104DA00090E00E94CEB3811181C284E4A8D588230B
:104DB00009F47CC20E944DC479C29DE2E92E9CE0B8
:104DC000F92E06ED12E024E0D22ED00ED8018D91FE
:104DD0008D0195D5882341F0BDD50E9493C6F7017A
:104DE0006083718382839383F4E0EF0EF11CD01211
:104DF000EDCF0E94E2945AC215E4E12E1CE0F12EA0
:104E000006ED12E084E0D82ED00ED8018D918D01F0
:104E100076D5882331F09ED5F70160837183828334
:104E20009383F4E0EF0EF11CD012EFCF3FC283E585
:104E300066D58823F1F08ED5AB01BC014093610C9F
:104E40005093620C6093630C7093640C4093250C38
:104E50005093260C6093270C7093280C84E995E0FE
:104E60000E94D6308091C00085FFFCCF8AE08093FD
:104E7000C60080E544D58823B1F06CD5AB01BC01F8
:104E80004093610C5093620C6093630C7093640CBC
:104E900087E795E00E94D6308091C00085FFFCCF67
:104EA0008AE08093C60082E52AD58823B1F052D5E6
:104EB000AB01BC014093290C50932A0C60932B0C3E
:104EC00070932C0C88E595E00E94D6308091C0004C
:104ED00085FFFCCF8AE08093C60084E510D5882347
:104EE00009F4E4C137D5AB01BC014093250C5093C4
:104EF000260C6093270C7093280C8AE395E00E949F
:104F0000D6308091C00085FFFCCF8AE08093C60038
:104F1000CDC183E5F4D4882349F01CD56093410CBE
:104F20007093420C8093430C9093440C84E5E7D437
:104F3000882349F00FD560933D0C70933E0C80930D
:104F40003F0C9093400C82E4DAD4882359F002D5C8
:104F50000E9493C660938C1370938D1380938E136D
:104F600090938F1388E5CBD4882349F0F3D46093D2
:104F70005D0C70935E0C80935F0C9093600C8AE5DF
:104F8000BED4882349F0E6D46093590C70935A0C30
:104F900080935B0C90935C0C85E4B1D4882309F476
:104FA00085C1D8D46093550C7093560C8093570CE0
:104FB0009093580C7BC1F6EDAF2EF2E0BF2EA5EC1E
:104FC000CA2EA3E1DA2EB9E0EB2EB4E1FB2E00E00D
:104FD00010E0D5018D915D0192D4882301F1BAD4FE
:104FE0002B013C01F70120813181428153810E94D4
:104FF00049C59B01AC01D6016D917D918D919C912C
:105000000E944AC5F6016083718382839383D7012E
:105010004D925D926D927C921397C8012AD40F5FD6
:105020001F4FB4E0CB0ED11CE4E0EE0EF11C0330B8
:10503000110579F60C94901A83E561D4882309F45C
:1050400035C188D40E948EC67093960260939502F3
:105050002DC10E9469B32AC10E9444C227C10E9487
:1050600030C224C10E94E8BD21C10E94DA401EC1A5
:105070000E94B8BD1BC10E94F8BB18C10E941164F8
:1050800015C10E949A6212C10E94F3B90FC160E07B
:1050900082ED93E00E940F3B20E030E048EC53E4C7
:1050A0006091D1137091D2138091D3139091D41346
:1050B0000E9449C56093D1137093D2138093D31388
:1050C0009093D413E090CD13F090CE130091CF13B2
:1050D0001091D0132091C9133091CA134091CB1372
:1050E0005091CC136091C5137091C6138091C71372
:1050F0009091C813E0916E0CEF93812C912CE8EE07
:10510000AE2EE2E4BE2EF1EDCF2EF3E1DF2E0E94B3
:10511000A89720E030E046E953E46091D113709104
:10512000D2138091D3139091D4130E9449C56093F8
:10513000D1137093D2138093D3139093D413E09030
:10514000CD13F090CE130091CF131091D013209176
:10515000C9133091CA134091CB135091CC13609175
:10516000C5137091C6138091C7139091C813E09135
:105170006E0CEF930E94A8970E9402410F900F902F
:1051800095C0602F002371F1EFE3F8E1849188234B
:1051900041F09091C00095FFFCCF8093C6003196FE
:1051A000F5CF8091C00085FFFCCF84E58093C600D9
:1051B00070E080E090E04AE00E94CA59E5EEF3E03A
:1051C0008191882339F09091C00095FFFCCF8093A6
:1051D000C600F6CF8091C00085FFFCCF8AE08093A7
:1051E000C60064C01092521286E489D3882391F0DD
:1051F000B1D36B017C0120E030E0A9010E9470C7AF
:10520000181644F4C0927A02D0927B02E0927C029B
:10521000F0927D02EFE3F8E18491882341F09091D0
:10522000C00095FFFCCF8093C6003196F5CFE6EF26
:10523000F3E08191882339F09091C00095FFFCCF75
:105240008093C600F6CF60916E0C70E080E090E035
:105250000E943F5A8091C00085FFFCCF8AE0809376
:10526000C60024C080E023C00E94024188E547D3E5
:10527000882319F05F9A10926A0589E540D3882344
:1052800019F08A9A10926B058AE539D3882351F078
:105290009FB7F894809108018160809308019FBFB7
:1052A00010926C0585E42BD38111129A81E0109243
:1052B000351210923412882311F40C94A3120E9418
:1052C000908573C09091C00095FFFCCF8093C6007D
:1052D000319684918111F6CFEFEBF5E0849188232C
:1052E00041F09091C00095FFFCCF8093C6003196AD
:1052F000F5CFE091BC04F091BD048191882339F091
:105300009091C00095FFFCCF8093C600F6CFECEBE8
:10531000F5E08491882399F29091C00095FFFCCF2D
:105320008093C6003196F5CF81E090E090933512DE
:105330008093341210926C0C10926B0C0C94C11D63
:10534000F1D2AC01990F660B770B4093F611509395
:10535000F7116093F8117093F91185E491E10E94BF
:10536000BC92A4CFDFD2AC01990F660B770B4093B0
:10537000F6115093F7116093F8117093F91185E4C9
:1053800091E10E94BC920C9406200E9418C4A6C809
:10539000E1D20E948EC670930B1260930A12E4C988
:1053A0000E9402410E94A77E81CFCA58DF4F0FB6EC
:1053B000F894DEBF0FBECDBFDF91CF911F910F914B
:1053C000FF90EF90DF90CF90BF90AF909F908F9025
:1053D0007F906F905F904F903F902F900895209115
:1053E000290530912A05F901E359FA4F8083C90153
:1053F000019664E070E00E9409C590932A058093AD
:10540000290580910007909101070196909301076B
:10541000809300070895CF93C62FECE1F8E1249123
:10542000222379F03091C00035FFFCCF2093C600D5
:105430003196F5CF3091C00035FFFCCF2093C600E8
:105440000196FC0124912111F5CF609128127091F1
:10545000291280912A1290912B120E943F5A80911A
:10546000C00085FFFCCF8AE08093C600C1110E9476
:10547000B1851092270510922605CF9108958F923D
:105480009F92AF92BF92CF92DF92EF92FF92EEEE99
:10549000F7E08491882341F09091C00095FFFCCF04
:1054A0008093C6003196F5CF6091C5137091C613F5
:1054B0008091C7139091C81342E00E94655AEAEEAA
:1054C000F7E08491882341F09091C00095FFFCCFD4
:1054D0008093C6003196F5CF6091C9137091CA13BD
:1054E0008091CB139091CC1342E00E94655AE6EE76
:1054F000F7E08491882341F09091C00095FFFCCFA4
:105500008093C6003196F5CF6091CD137091CE1384
:105510008091CF139091D01342E00E94655AE2EE41
:10552000F7E08491882341F09091C00095FFFCCF73
:105530008093C6003196F5CF6091D1137091D2134C
:105540008091D3139091D41342E00E94655A2FB7F3
:10555000F8946091B5137091B6138091B713909140
:10556000B8138090B9139090BA13A090BB13B09069
:10557000BC13C090BD13D090BE13E090BF13F09049
:10558000C0132FBFE7EDF7E02491222341F03091C3
:10559000C00035FFFCCF2093C6003196F5CF0E94A6
:1055A0003F5AE3EDF7E08491882341F09091C000E9
:1055B00095FFFCCF8093C6003196F5CFC501B401AD
:1055C0000E943F5AEFECF7E08491882341F09091DC
:1055D000C00095FFFCCF8093C6003196F5CFC70180
:1055E000B6010E943F5A8091C00085FFFCCF8AE03F
:1055F0008093C600FF90EF90DF90CF90BF90AF9068
:105600009F908F90089580E1E5ECF3E1A2E4B2E190
:1056100001900D928A95E1F7089580E1E2E4F2E1CC
:10562000A5ECB3E101900D928A95E1F70895EF9210
:10563000FF920F931F93E5ECF3E1E084F184028580
:1056400013852481358146815781608171818281F2
:1056500093810E9401AF1F910F91FF90EF900895E9
:105660008F929F92AF92BF92CF92DF92EF92FF9272
:105670000F931F9320E030E040E752E460917A02FC
:1056800070917B0280917C0290917D020E9426C6DF
:105690004B015C01E2E4F2E1E084F18402851385D0
:1056A0002481358146815781608171818281938116
:1056B000E0916E0CEF93EEE4CE2EE2E1DE2E0E943E
:1056C000A8970F901F910F91FF90EF90DF90CF90D0
:1056D000BF90AF909F908F9008958F929F92AF92BE
:1056E000BF92CF92DF92EF92FF920F931F9320E031
:1056F00030E040E752E460917A0270917B02809141
:105700007C0290917D020E9426C64B015C01E5EC73
:10571000F3E1E084F184028513852481358146819B
:1057200057816081718182819381E0916E0CEF934A
:10573000E1EDCE2EE3E1DE2E0E94A8970F901F919F
:105740000F91FF90EF90DF90CF90BF90AF909F9020
:105750008F900895AF92BF92CF92DF92EF92FF9217
:105760000F931F93CF93DF9300D01F92CDB7DEB777
:1057700069017A0100917A0210917B0220917C02EA
:1057800030917D020093A8041093A9042093AA04E9
:105790003093AB0400E010E82BE335E400937A0289
:1057A00010937B0220937C0230937D0225ECA22E85
:1057B00023E1B22E00E010E020E131E4F5010087A2
:1057C00011872287338769837A838B839C8385DF64
:1057D00009E014E1F801208131814281538169811E
:1057E0007A818B819C810E944AC5F5016083718317
:1057F00082839383F8012481358146815781C701D3
:10580000B6010E944AC5F501648375838683978338
:1058100064DF80E090E0A0E8B0E4F5018087918744
:10582000A287B3875ADF8091A8049091A904A09120
:10583000AA04B091AB0480937A0290937B02A09368
:105840007C02B0937D020F900F900F900F90DF912C
:10585000CF911F910F91FF90EF90DF90CF90BF906D
:10586000AF900C940241FC016591759185919491E2
:105870000895CF92DF92EF92FF920F931F93CF93F1
:10588000DF93EC01CC0FDD1FCC0FDD1FFE01E75FC6
:10589000FB4EDE01AA5CBD4E2D913D914D915C9178
:1058A00060817181828193810E944AC56B017C0174
:1058B000CE01885A984FD7DF8E0104581C4EA7019D
:1058C00096010E944AC5F8016083718382839383A5
:1058D000CE01845B984FC7DFC158DD4FA701960109
:1058E0000E944AC5688379838A839B83DF91CF9125
:1058F0001F910F91FF90EF90DF90CF900895682F48
:10590000880F770B8091B7049091B8040E94E2C889
:105910009C019093AD048093AC0481E0232B09F4A7
:1059200080E008958091AC049091AD044AE050E08D
:1059300060E070E001960E9437CBCB010895809122
:10594000AC049091AD044AE050E060E070E0019654
:105950000C9437CB0F931F93CF93DF93C091AC047C
:10596000D091AD0465E470E0CE010E94E2C88C01E4
:10597000CE0101960115110571F0F801108260E069
:1059800070E00E94D1C925E4F8012083DF91CF9116
:105990001F910F91089560E070E0DF91CF911F910A
:1059A0000F910C94D1C9CF92DF92EF92FF920F9397
:1059B0001F93CF93DF9386EDE82E82E0F82E02E46A
:1059C00012E1C5ECD3E192EBC92E94E0D92EF70198
:1059D00081917F0194DF8823C9F0BCDFF60120812B
:1059E000211104C02091B604222329F02881398195
:1059F0004A815B8103C020E030E0A9010E944AC5D2
:105A0000F801608371838283938309C088819981BF
:105A1000AA81BB81F80180839183A283B3830C5F49
:105A20001F4F2496FFEFCF1ADF0A8AEDE81682E0B7
:105A3000F80669F686E463DF882391F08BDF6B015B
:105A40007C0120E030E0A9010E9470C7181644F4E0
:105A5000C0927A02D0927B02E0927C02F0927D02A8
:105A6000DF91CF911F910F91FF90EF90DF90CF903A
:105A70000895CF93FC0180818B33D1F08091000792
:105A8000909101070497A4F4C62FBF012091290526
:105A900030912A0540E6429FC001439F900D11249A
:105AA00082589A4F0E94F6C88C2F99DC81E001C081
:105AB00080E0CF910895DF92EF92FF920F931F93B2
:105AC000CF93DF93CDB7DEB76E970FB6F894DEBFF6
:105AD0000FBECDBF60910512709106126115710560
